{
  "contractName": "ReadingCollector",
  "abi": [
    {
      "constant": true,
      "inputs": [],
      "name": "minLevel",
      "outputs": [
        {
          "name": "",
          "type": "uint256"
        }
      ],
      "payable": false,
      "stateMutability": "view",
      "type": "function"
    },
    {
      "constant": true,
      "inputs": [],
      "name": "maxLevel",
      "outputs": [
        {
          "name": "",
          "type": "uint256"
        }
      ],
      "payable": false,
      "stateMutability": "view",
      "type": "function"
    },
    {
      "constant": true,
      "inputs": [
        {
          "name": "",
          "type": "uint256"
        }
      ],
      "name": "readings",
      "outputs": [
        {
          "name": "time",
          "type": "uint256"
        },
        {
          "name": "reading",
          "type": "uint256"
        },
        {
          "name": "normal",
          "type": "bool"
        }
      ],
      "payable": false,
      "stateMutability": "view",
      "type": "function"
    },
    {
      "inputs": [],
      "payable": false,
      "stateMutability": "nonpayable",
      "type": "constructor"
    },
    {
      "anonymous": false,
      "inputs": [
        {
          "indexed": false,
          "name": "time",
          "type": "uint256"
        },
        {
          "indexed": false,
          "name": "reading",
          "type": "uint256"
        }
      ],
      "name": "LogAbnormalReading",
      "type": "event"
    },
    {
      "anonymous": false,
      "inputs": [
        {
          "indexed": false,
          "name": "description",
          "type": "string"
        }
      ],
      "name": "LogConstructorInitiated",
      "type": "event"
    },
    {
      "anonymous": false,
      "inputs": [
        {
          "indexed": false,
          "name": "time",
          "type": "uint256"
        },
        {
          "indexed": false,
          "name": "reading",
          "type": "uint256"
        },
        {
          "indexed": false,
          "name": "normal",
          "type": "bool"
        }
      ],
      "name": "LogReading",
      "type": "event"
    },
    {
      "anonymous": false,
      "inputs": [
        {
          "indexed": false,
          "name": "description",
          "type": "string"
        }
      ],
      "name": "LogNewProvableQuery",
      "type": "event"
    },
    {
      "constant": false,
      "inputs": [
        {
          "name": "myid",
          "type": "bytes32"
        },
        {
          "name": "result",
          "type": "string"
        }
      ],
      "name": "__callback",
      "outputs": [],
      "payable": false,
      "stateMutability": "nonpayable",
      "type": "function"
    },
    {
      "constant": false,
      "inputs": [
        {
          "name": "myid",
          "type": "bytes32"
        },
        {
          "name": "result",
          "type": "string"
        },
        {
          "name": "proof",
          "type": "bytes"
        }
      ],
      "name": "__callback",
      "outputs": [],
      "payable": false,
      "stateMutability": "nonpayable",
      "type": "function"
    },
    {
      "constant": false,
      "inputs": [],
      "name": "startReading",
      "outputs": [],
      "payable": true,
      "stateMutability": "payable",
      "type": "function"
    }
  ],
  "bytecode": "0x608060405234801561001057600080fd5b50605060068190555060146007819055507f11a3fca63f87bd67d7f9f72b744acc8be2193705e7a734ac3a773d35d259e87b6040518080602001828103825260358152602001807f436f6e7374727563746f722077617320696e697469617465642e20576174657281526020017f206c6576656c206d61783d38302c206d696e3d3230000000000000000000000081525060400191505060405180910390a1611a66806100be6000396000f300608060405260043610610078576000357c0100000000000000000000000000000000000000000000000000000000900463ffffffff16806327dc297e1461007d57806338bbfa50146100f457806389dced2e146101b157806396fe4288146101bb578063cc06c359146101e6578063d5da886d14610211575b600080fd5b34801561008957600080fd5b506100f26004803603810190808035600019169060200190929190803590602001908201803590602001908080601f0160208091040260200160405190810160405280939291908181526020018383808284378201915050505050509192919290505050610264565b005b34801561010057600080fd5b506101af6004803603810190808035600019169060200190929190803590602001908201803590602001908080601f0160208091040260200160405190810160405280939291908181526020018383808284378201915050505050509192919290803590602001908201803590602001908080601f01602080910402602001604051908101604052809392919081815260200183838082843782019150505050505091929192905050506104a2565b005b6101b96104a7565b005b3480156101c757600080fd5b506101d0610683565b6040518082815260200191505060405180910390f35b3480156101f257600080fd5b506101fb610689565b6040518082815260200191505060405180910390f35b34801561021d57600080fd5b5061023c6004803603810190808035906020019092919050505061068f565b6040518084815260200183815260200182151515158152602001935050505060405180910390f35b60008060006102716106d5565b73ffffffffffffffffffffffffffffffffffffffff163373ffffffffffffffffffffffffffffffffffffffff161415156102aa57600080fd5b42925073__Integers______________________________6342346c5e856040518263ffffffff167c01000000000000000000000000000000000000000000000000000000000281526004018080602001828103825283818151815260200191508051906020019080838360005b83811015610333578082015181840152602081019050610318565b50505050905090810190601f1680156103605780820380516001836020036101000a031916815260200191505b509250505060206040518083038186803b15801561037d57600080fd5b505af4158015610391573d6000803e3d6000fd5b505050506040513d60208110156103a757600080fd5b810190808051906020019092919050505091506103c48383610a33565b9050600560606040519081016040528085815260200184815260200183151581525090806001815401808255809150509060018203906000526020600020906003020160009091929091909150600082015181600001556020820151816001015560408201518160020160006101000a81548160ff0219169083151502179055505050507f330d955d2950fb68a7611f4fddadf0b7f41d11a82dbe6409d306c1dbcf54d1cf8383836040518084815260200183815260200182151515158152602001935050505060405180910390a161049b6104a7565b5050505050565b505050565b3073ffffffffffffffffffffffffffffffffffffffff16316104fd6040805190810160405280600381526020017f55524c0000000000000000000000000000000000000000000000000000000000815250610a9e565b11156105bc577fc4dc360d0a9c0677a3379ae0a3d81e887f761e65fdf3d7e00859d1bcd3c4738960405180806020018281038252604b8152602001807f50726f7661626c6520717565727920776173204e4f542073656e742c20706c6581526020017f6173652061646420736f6d652045544820746f20636f76657220666f7220746881526020017f652071756572792066656500000000000000000000000000000000000000000081525060600191505060405180910390a1610681565b61067f600a6040805190810160405280600381526020017f55524c0000000000000000000000000000000000000000000000000000000000815250608060405190810160405280604981526020017f68747470733a2f2f743232756a736a3735352e657865637574652d6170692e7581526020017f732d656173742d312e616d617a6f6e6177732e636f6d2f64656661756c742f7381526020017f6d6172746d657465720000000000000000000000000000000000000000000000815250610e6e565b505b565b60075481565b60065481565b60058181548110151561069e57fe5b90600052602060002090600302016000915090508060000154908060010154908060020160009054906101000a900460ff16905083565b6000806000809054906101000a900473ffffffffffffffffffffffffffffffffffffffff1673ffffffffffffffffffffffffffffffffffffffff161480610745575060006107436000809054906101000a900473ffffffffffffffffffffffffffffffffffffffff16611410565b145b1561075657610754600061141b565b505b6000809054906101000a900473ffffffffffffffffffffffffffffffffffffffff1673ffffffffffffffffffffffffffffffffffffffff166338cc48316040518163ffffffff167c0100000000000000000000000000000000000000000000000000000000028152600401602060405180830381600087803b1580156107db57600080fd5b505af11580156107ef573d6000803e3d6000fd5b505050506040513d602081101561080557600080fd5b810190808051906020019092919050505073ffffffffffffffffffffffffffffffffffffffff16600160009054906101000a900473ffffffffffffffffffffffffffffffffffffffff1673ffffffffffffffffffffffffffffffffffffffff1614151561096d576000809054906101000a900473ffffffffffffffffffffffffffffffffffffffff1673ffffffffffffffffffffffffffffffffffffffff166338cc48316040518163ffffffff167c0100000000000000000000000000000000000000000000000000000000028152600401602060405180830381600087803b1580156108f157600080fd5b505af1158015610905573d6000803e3d6000fd5b505050506040513d602081101561091b57600080fd5b8101908080519060200190929190505050600160006101000a81548173ffffffffffffffffffffffffffffffffffffffff021916908373ffffffffffffffffffffffffffffffffffffffff1602179055505b600160009054906101000a900473ffffffffffffffffffffffffffffffffffffffff1673ffffffffffffffffffffffffffffffffffffffff1663c281d19e6040518163ffffffff167c0100000000000000000000000000000000000000000000000000000000028152600401602060405180830381600087803b1580156109f357600080fd5b505af1158015610a07573d6000803e3d6000fd5b505050506040513d6020811015610a1d57600080fd5b8101908080519060200190929190505050905090565b6000600654821180610a46575060075482105b15610a93577f9b2448daae9e3e801ff2fe444e4a7fa93bdda4d06be14c818438bcd8ae734dd68383604051808381526020018281526020019250505060405180910390a160009050610a98565b600190505b92915050565b6000806000809054906101000a900473ffffffffffffffffffffffffffffffffffffffff1673ffffffffffffffffffffffffffffffffffffffff161480610b0e57506000610b0c6000809054906101000a900473ffffffffffffffffffffffffffffffffffffffff16611410565b145b15610b1f57610b1d600061141b565b505b6000809054906101000a900473ffffffffffffffffffffffffffffffffffffffff1673ffffffffffffffffffffffffffffffffffffffff166338cc48316040518163ffffffff167c0100000000000000000000000000000000000000000000000000000000028152600401602060405180830381600087803b158015610ba457600080fd5b505af1158015610bb8573d6000803e3d6000fd5b505050506040513d6020811015610bce57600080fd5b810190808051906020019092919050505073ffffffffffffffffffffffffffffffffffffffff16600160009054906101000a900473ffffffffffffffffffffffffffffffffffffffff1673ffffffffffffffffffffffffffffffffffffffff16141515610d36576000809054906101000a900473ffffffffffffffffffffffffffffffffffffffff1673ffffffffffffffffffffffffffffffffffffffff166338cc48316040518163ffffffff167c0100000000000000000000000000000000000000000000000000000000028152600401602060405180830381600087803b158015610cba57600080fd5b505af1158015610cce573d6000803e3d6000fd5b505050506040513d6020811015610ce457600080fd5b8101908080519060200190929190505050600160006101000a81548173ffffffffffffffffffffffffffffffffffffffff021916908373ffffffffffffffffffffffffffffffffffffffff1602179055505b600160009054906101000a900473ffffffffffffffffffffffffffffffffffffffff1673ffffffffffffffffffffffffffffffffffffffff1663524f3889836040518263ffffffff167c01000000000000000000000000000000000000000000000000000000000281526004018080602001828103825283818151815260200191508051906020019080838360005b83811015610de0578082015181840152602081019050610dc5565b50505050905090810190601f168015610e0d5780820380516001836020036101000a031916815260200191505b5092505050602060405180830381600087803b158015610e2c57600080fd5b505af1158015610e40573d6000803e3d6000fd5b505050506040513d6020811015610e5657600080fd5b81019080805190602001909291905050509050919050565b60008060008060009054906101000a900473ffffffffffffffffffffffffffffffffffffffff1673ffffffffffffffffffffffffffffffffffffffff161480610ee057506000610ede6000809054906101000a900473ffffffffffffffffffffffffffffffffffffffff16611410565b145b15610ef157610eef600061141b565b505b6000809054906101000a900473ffffffffffffffffffffffffffffffffffffffff1673ffffffffffffffffffffffffffffffffffffffff166338cc48316040518163ffffffff167c0100000000000000000000000000000000000000000000000000000000028152600401602060405180830381600087803b158015610f7657600080fd5b505af1158015610f8a573d6000803e3d6000fd5b505050506040513d6020811015610fa057600080fd5b810190808051906020019092919050505073ffffffffffffffffffffffffffffffffffffffff16600160009054906101000a900473ffffffffffffffffffffffffffffffffffffffff1673ffffffffffffffffffffffffffffffffffffffff16141515611108576000809054906101000a900473ffffffffffffffffffffffffffffffffffffffff1673ffffffffffffffffffffffffffffffffffffffff166338cc48316040518163ffffffff167c0100000000000000000000000000000000000000000000000000000000028152600401602060405180830381600087803b15801561108c57600080fd5b505af11580156110a0573d6000803e3d6000fd5b505050506040513d60208110156110b657600080fd5b8101908080519060200190929190505050600160006101000a81548173ffffffffffffffffffffffffffffffffffffffff021916908373ffffffffffffffffffffffffffffffffffffffff1602179055505b600160009054906101000a900473ffffffffffffffffffffffffffffffffffffffff1673ffffffffffffffffffffffffffffffffffffffff1663524f3889856040518263ffffffff167c01000000000000000000000000000000000000000000000000000000000281526004018080602001828103825283818151815260200191508051906020019080838360005b838110156111b2578082015181840152602081019050611197565b50505050905090810190601f1680156111df5780820380516001836020036101000a031916815260200191505b5092505050602060405180830381600087803b1580156111fe57600080fd5b505af1158015611212573d6000803e3d6000fd5b505050506040513d602081101561122857600080fd5b8101908080519060200190929190505050905062030d403a02670de0b6b3a76400000181111561125e5760006001029150611408565b600160009054906101000a900473ffffffffffffffffffffffffffffffffffffffff1673ffffffffffffffffffffffffffffffffffffffff1663adf59f99828787876040518563ffffffff167c0100000000000000000000000000000000000000000000000000000000028152600401808481526020018060200180602001838103835285818151815260200191508051906020019080838360005b838110156113155780820151818401526020810190506112fa565b50505050905090810190601f1680156113425780820380516001836020036101000a031916815260200191505b50838103825284818151815260200191508051906020019080838360005b8381101561137b578082015181840152602081019050611360565b50505050905090810190601f1680156113a85780820380516001836020036101000a031916815260200191505b50955050505050506020604051808303818588803b1580156113c957600080fd5b505af11580156113dd573d6000803e3d6000fd5b50505050506040513d60208110156113f457600080fd5b810190808051906020019092919050505091505b509392505050565b6000813b9050919050565b600061142561142c565b9050919050565b60008061144c731d3b2638a7cc9f2cb3d298a3da7a90b67e5506ed611410565b11156114ed57731d3b2638a7cc9f2cb3d298a3da7a90b67e5506ed6000806101000a81548173ffffffffffffffffffffffffffffffffffffffff021916908373ffffffffffffffffffffffffffffffffffffffff1602179055506114e46040805190810160405280600b81526020017f6574685f6d61696e6e657400000000000000000000000000000000000000000081525061197b565b60019050611978565b600061150c73c03a2615d5efaf5f49f60b7bb6583eaec212fdf1611410565b11156115ad5773c03a2615d5efaf5f49f60b7bb6583eaec212fdf16000806101000a81548173ffffffffffffffffffffffffffffffffffffffff021916908373ffffffffffffffffffffffffffffffffffffffff1602179055506115a46040805190810160405280600c81526020017f6574685f726f707374656e33000000000000000000000000000000000000000081525061197b565b60019050611978565b60006115cc73b7a07bcf2ba2f2703b24c0691b5278999c59ac7e611410565b111561166d5773b7a07bcf2ba2f2703b24c0691b5278999c59ac7e6000806101000a81548173ffffffffffffffffffffffffffffffffffffffff021916908373ffffffffffffffffffffffffffffffffffffffff1602179055506116646040805190810160405280600981526020017f6574685f6b6f76616e000000000000000000000000000000000000000000000081525061197b565b60019050611978565b600061168c73146500cfd35b22e4a392fe0adc06de1a1368ed48611410565b111561172d5773146500cfd35b22e4a392fe0adc06de1a1368ed486000806101000a81548173ffffffffffffffffffffffffffffffffffffffff021916908373ffffffffffffffffffffffffffffffffffffffff1602179055506117246040805190810160405280600b81526020017f6574685f72696e6b65627900000000000000000000000000000000000000000081525061197b565b60019050611978565b600061174c73a2998efd205fb9d4b4963afb70778d6354ad3a41611410565b11156117ed5773a2998efd205fb9d4b4963afb70778d6354ad3a416000806101000a81548173ffffffffffffffffffffffffffffffffffffffff021916908373ffffffffffffffffffffffffffffffffffffffff1602179055506117e46040805190810160405280600a81526020017f6574685f676f65726c690000000000000000000000000000000000000000000081525061197b565b60019050611978565b600061180c736f485c8bf6fc43ea212e93bbf8ce046c7f1cb475611410565b111561186f57736f485c8bf6fc43ea212e93bbf8ce046c7f1cb4756000806101000a81548173ffffffffffffffffffffffffffffffffffffffff021916908373ffffffffffffffffffffffffffffffffffffffff16021790555060019050611978565b600061188e7320e12a1f859b3feae5fb2a0a32c18f5a65555bbf611410565b11156118f1577320e12a1f859b3feae5fb2a0a32c18f5a65555bbf6000806101000a81548173ffffffffffffffffffffffffffffffffffffffff021916908373ffffffffffffffffffffffffffffffffffffffff16021790555060019050611978565b60006119107351efaf4c8b3c9afbd5ab9f4bbc82784ab6ef8faa611410565b1115611973577351efaf4c8b3c9afbd5ab9f4bbc82784ab6ef8faa6000806101000a81548173ffffffffffffffffffffffffffffffffffffffff021916908373ffffffffffffffffffffffffffffffffffffffff16021790555060019050611978565b600090505b90565b8060029080519060200190611991929190611995565b5050565b828054600181600116156101000203166002900490600052602060002090601f016020900481019282601f106119d657805160ff1916838001178555611a04565b82800160010185558215611a04579182015b82811115611a035782518255916020019190600101906119e8565b5b509050611a119190611a15565b5090565b611a3791905b80821115611a33576000816000905550600101611a1b565b5090565b905600a165627a7a723058205d09cefbd9a3f05002c083a7f04945dd45c0642d26d4e2fe8da8bb0d54d8f9a40029",
  "source": "pragma solidity ^0.4.22;\nimport \"./provableAPI.sol\";\nimport \"./Integers.sol\";\n\ncontract ReadingCollector is usingProvable {\n\n   Reading[] public readings;\n   \n   uint public maxLevel;\n   uint public minLevel;\n   \n   struct Reading {\n       uint256 time;\n       uint reading;\n       bool normal;\n   }\n   \n   event LogAbnormalReading(uint256 time, uint reading);\n   event LogConstructorInitiated(string description);\n   event LogReading(uint256 time, uint reading, bool normal);\n   event LogNewProvableQuery(string description);\n   \n   constructor() public {\n       maxLevel = 80;\n       minLevel = 20;\n       emit LogConstructorInitiated(\"Constructor was initiated. Water level max=80, min=20\");\n   }\n\n   function __callback(bytes32 myid, string result) public {\n       if (msg.sender != provable_cbAddress()) revert();\n       uint256 time = now;\n       uint reading = Integers.parseInt(result);\n       bool normal = __checkReading(time, reading);\n       readings.push(Reading(time, reading, normal));\n       emit LogReading(time, reading, normal);\n       startReading();\n   }\n   \n   function startReading() public payable {\n       if (provable_getPrice(\"URL\") > this.balance) {\n           emit LogNewProvableQuery(\"Provable query was NOT sent, please add some ETH to cover for the query fee\");\n       } else {\n           provable_query(10, \"URL\", \"https://t22ujsj755.execute-api.us-east-1.amazonaws.com/default/smartmeter\");\n       }\n   }\n   \n   function __checkReading(uint256 time, uint reading) private returns(bool) {\n       if(reading > maxLevel || reading < minLevel) {\n           emit LogAbnormalReading(time, reading);\n           return false;\n       }\n       return true;\n   }\n}",
  "sourcePath": "/Users/alex/ETHWaterloo/EthWaterDam/contracts/ReadingCollector.sol",
  "compiler": {
    "name": "solc",
    "version": "0.4.25+commit.59dbf8f1.Emscripten.clang"
  },
  "schemaVersion": "3.0.17",
  "updatedAt": "2019-11-10T06:46:04.175Z",
  "devdoc": {
    "methods": {}
  },
  "userdoc": {
    "methods": {}
  }
}